:020000022000DC
:1060000000000420159002003D9002003F90020025
:106010004190020043900200459002000000000001
:106020000000000000000000000000004790020097
:1060300049900200000000004B9002004D900200C9
:1060400061BC02004F900200ADC50200E9D402001D
:10605000BDD602004F9002009DC0020099D80200F8
:106060004F9002004F9002004F9002004F900200AC
:106070004F9002004F9002004F9002004F9002009C
:106080004F900200C9A102004F9002004F90020001
:1060900069A202004F900200850703004F900200A2
:1060A0004F9002004F9002007DC802004F90020006
:1060B0004F9002004F90020000000000000000001E
:1060C0004F9002004F9002004F9002004F9002004C
:1060D0004F9002004F9002004F9002004F9002003C
:1060E0004F9002004F9002004F900200000000000D
:1060F000000000004F900200000000004F900200DE
:10610000000000000000000000000000000000008F
:10611000000000000000000000000000000000007F
:10612000000000000000000000000000000000006F
:10613000000000000000000000000000000000005F
:10614000000000000000000000000000000000004F
:10615000000000000000000000000000000000003F
:10616000000000000000000000000000000000002F
:10617000000000000000000000000000000000001F
:10618000000000000000000000000000000000000F
:1061900000000000000000000000000000000000FF
:1061A00000000000000000000000000000000000EF
:1061B00000000000000000000000000000000000DF
:1061C00000000000000000000000000000000000CF
:1061D00000000000000000000000000000000000BF
:1061E00000000000000000000000000000000000AF
:1061F000000000000000000000000000000000009F
:1062000010B5054C237833B9044B13B10448AFF3F0
:1062100000800123237010BD2839002000000000F9
:106220001070040008B5034B1BB103490348AFF3DA
:10623000008008BD000000002C3900201070040010
:10624000A3F5803A704700BF174B002B08BF134BD4
:106250009D46FFF7F5FF00218B460F461348144A71
:10626000121A0AF0E7FC0E4B002B00D098470D4B9A
:10627000002B00D098470020002104000D000D489D
:10628000002802D00C48AFF300800AF091FC2000F7
:10629000290008F009FB0AF065FC00BF00000800B7
:1062A0000000000000000000000004202839002049
:1062B0000C56002000000000000000000020704785
:1062C00000200021704700BF0FB404B0704700BF2A
:1062D000704700BF0AF090BC0AF028BC0AF094BCDA
:1062E000044B1B688B42A3BF034B03EBC1014868FF
:1062F000002070478C3B00203C3B0020044B1B6877
:106300009942DDBF034B03EBC10148680020704791
:106310008C3B00203C3B0020704700BF38B5294B28
:10632000294A1868294B52F82020B3F90C0011446F
:1063300081421FD047F6FF7290421FD0B3F91C0074
:10634000814236D0904236D0B3F92C00814234D00D
:10635000904234D0B3F93C00884208BF03200AD0F1
:10636000904208BF03220AD019480421FFF7ACFF6E
:10637000002038BD002003EB001038BD002203EBE5
:106380000210012404724FEA011C124C14F80CC0D4
:1063900004EB0114BCF1020FA568456064684FEA84
:1063A000021202D10C4D2D682C449C50134499814B
:1063B00038BD0120DFE70122E1E70220DBE702220E
:1063C000DDE700BF90390020F4550400FC3A0020BE
:1063D0007C480300EC2A002044390020344B354A25
:1063E0001868354B52F82020B3F94000114481421F
:1063F00050D047F6FF72904270B522D0B3F98400B6
:10640000814218D090424BD0B3F9C80081424AD0A3
:1064100090424AD0B3F90C01884208BF03200BD048
:10642000904208BF4FF0030C0DD024480421FFF721
:106430004BFF002070BD012000EB001003EB80003B
:1064400070BD4FF0000C1E4A0C010CEB0C15145DD6
:1064500002EB011203EB8500D668866196688660C0
:10646000012603F82560022C4FF0000552680475E0
:106470004FEA0C1E80F82D5002D1124C24682244A1
:10648000F44403EB8C0300245A6083F83040A3F8F3
:10649000401070BD002000EB001003EB800070473F
:1064A0004FF0010CCFE70220C6E74FF0020CCAE71D
:1064B00090390020F4550400EC390020B448030062
:1064C000EC2A00204439002010B5034B0360044639
:1064D00002F0C8FC204610BD3456040010B5054B30
:1064E0000360044602F0BEFC204618210BF0C8FEF3
:1064F000204610BD3456040070B511F00F0218BFCD
:1065000001F110031A4E18BF9B1A1A4A3468126818
:1065100008BF0B46E31A9A420D4611D9164E33684E
:10652000092B1AD801212846FFF7D6FE0446D0B120
:10653000336812495A1C41F823003260204670BD6E
:10654000641A0F3C24F00F0410340A462046002140
:1065500034600AF06FFB204670BD09480024FFF745
:10656000B3FE204670BD07482946FFF7ADFEE5E7BC
:10657000603B00205C3B0020903B0020643B0020FF
:10658000EC4803006C49030038B5294B294A1868C8
:10659000294B52F82020B3F90C00114481421FD03E
:1065A00047F6FF7290421FD0B3F91C00814236D0EB
:1065B000904236D0B3F92C00814234D0904234D08E
:1065C000B3F93C00814208BF03200AD0904208BFC3
:1065D00003220AD019480421FFF776FE002038BDB7
:1065E000002003EB001038BD002203EB0210012451
:1065F00004724FEA011C124C14F80CC004EB011495
:10660000BCF1020FA568456064684FEA021202D12E
:106610000C4D2D682C449C501344998138BD0120A9
:10662000DFE70122E1E70220DBE70222DDE700BF2E
:1066300090390020F4550400FC3A00207C48030007
:10664000EC2A002044390020344B354A1868354B79
:1066500052F82020B3F940001144814250D047F64F
:10666000FF72904270B522D0B3F98400814218D0F5
:1066700090424BD0B3F9C80081424AD090424AD0F0
:10668000B3F90C01884208BF03200BD0904208BF29
:106690004FF0030C0DD024480421FFF715FE002015
:1066A00070BD012000EB001003EB800070BD4FF0C7
:1066B000000C1E4A0C010CEB0C15145D02EB0112D0
:1066C00003EB8500D668866196688660012603F82C
:1066D0002560022C4FF00005526804754FEA0C1E2D
:1066E00080F82D5002D1124C24682244F44403EB6C
:1066F0008C0300245A6083F83040A3F8401070BD2A
:10670000002000EB001003EB800070474FF0010CFD
:10671000CFE70220C6E74FF0020CCAE7903900200D
:10672000F4550400EC390020B4480300EC2A0020A2
:106730004439002070B511F00F0218BF01F11003A9
:106740001A4E18BF9B1A1A4A3468126808BF0B46C3
:10675000E31A9A420D4611D9164E3368092B1AD8FE
:1067600001212846FFF7B8FD0446D0B1336812492D
:106770005A1C41F823003260204670BD641A0F3C59
:1067800024F00F0410340A462046002134600AF039
:1067900051FA204670BD09480024FFF795FD2046B8
:1067A00070BD07482946FFF78FFDE5E7603B0020F5
:1067B0005C3B0020903B0020643B0020EC48030041
:1067C0006C4903002DE9F0412B4F3B68032B3DD86A
:1067D000164611F00F021CBF01F110039B1A274A45
:1067E00008BF0B460C46264915680868EB1A984204
:1067F00020D9DFF8A880D8F80030092B2CD8012147
:106800002046FFF769FD054680B3D8F800301D4AE1
:1068100042F823000133C8F80030396831604B1C5E
:106820003B60194B43F8314003EBC10300205D602E
:10683000BDE8F0812D1B0F3D25F00F0510351560CB
:106840000021224628460AF0F5F9E6E70F48FFF74F
:106850003BFD0120BDE8F0810D482146FFF734FDE6
:106860000C482146FFF730FD0120E1E70A482146A8
:10687000FFF72AFDF4E700BF8C3B0020603B0020BF
:106880005C3B0020643B00203C3B0020A44903000B
:10689000EC480300FC4903006C490300903B0020D6
:1068A0002DE9F0412B4F3B68032B3DD8164611F0E4
:1068B0000F021CBF01F110039B1A274A08BF0B46A9
:1068C0000C46264915680868EB1A984220D9DFF86B
:1068D000A880D8F80030092B2CD801212046FFF7DA
:1068E000FBFC054680B3D8F800301D4A42F823006F
:1068F0000133C8F80030396831604B1C3B60194BDC
:1069000043F8314003EBC10300205D60BDE8F08136
:106910002D1B0F3D25F00F05103515600021224677
:1069200028460AF087F9E6E70F48FFF7CDFC01207B
:10693000BDE8F0810D482146FFF7C6FC0C48214612
:10694000FFF7C2FC0120E1E70A482146FFF7BCFC43
:10695000F4E700BF8C3B0020603B00205C3B002044
:10696000643B00203C3B0020A4490300EC480300AA
:10697000FC4903006C490300903B00202DE9F04FD7
:10698000034691B04FF4A061102098479F4C2060BF
:10699000002800F0D9819E4E9E4DDFF8AC92286011
:1069A00000F5A06333600AAF00231A461946384643
:1069B00002F008FB984A994850639948D063994B74
:1069C000994810649948D064197899481065994895
:1069D000106102294FF00E0097601060CDF82890EA
:1069E0002A6808D1206859680144D8680144914256
:1069F00084BF29600A46197C022908D15869216898
:106A00000144D8690144914284BF29600A4693F841
:106A10002010022908D1586A21680144D86A01442B
:106A2000914284BF29600A4693F83010022908D1A8
:106A30002068596B0144D86B01448A423CBF2960ED
:106A40000A4693F84010022908D12068596C014485
:106A5000D86C0144914284BF29600A4693F85010D3
:106A6000022908D12068596D0144D86D01448A4239
:106A70003CBF29600A4693F86010022908D12068BB
:106A8000596E0144D86E01448A423CBF29600A46CF
:106A900093F87010022908D12068596F0144D86F0B
:106AA00001448A423CBF29600A4693F880100229BB
:106AB0000AD12068D3F884100144D3F88C00014433
:106AC0008A423CBF29600A4693F8901002290AD1F5
:106AD0002068D3F894100144D3F89C0001448A4202
:106AE0003CBF29600A4693F8A01002290AD1206809
:106AF000D3F8A4100144D3F8AC0001448A423CBF4F
:106B000029600A4693F8B01002290AD12068D3F808
:106B1000B4100144D3F8BC0001448A423CBF296050
:106B20000A4693F8C01002290AD12068D3F8C4108D
:106B30000144D3F8CC0001448A423CBF29600A4694
:106B400093F8D01002290AD1D3F8D4002168D3F8E1
:106B5000DC3001440B44934284BF2B601A463368F7
:106B600093424ED3684601F04DFE6D460FCD324C38
:106B70000FC40FCD0FC42B6844F82039684602F0CB
:106B80002DF8DFF8C8B0DFF8C8E02C4E2C4DDFF848
:106B900088A00023CBF80030EC46BCE80F00AEE83C
:106BA0000F00BCE80F00AEE80F00DCF80030CEF8B4
:106BB000003006F1050816F8013B03EBC30354F857
:106BC000233023B169690022504698472861464521
:106BD00005F12805EFD1A2680023CBF80030002A88
:106BE00038D1E26A002A40F097800025CBF80050A7
:106BF0003846CDF8289002F035F9284611B0BDE8A6
:106C0000F08F1048FFF760FB0125F1E744390020C1
:106C1000603B00205C3B002094390020F9640200B6
:106C2000A1680200EC2A0020E1620200DD6302009C
:106C30001D630200DD8F020048390020EC5504007E
:106C4000CC2B0020584A0300345604009039002011
:106C50006C390020DFF82881434E4449444847F608
:106C6000FF73A8F84030A8F88430A8F8C830A8F816
:106C70000C31B381B383B385B387904705460028B1
:106C8000B6D1A268002AACD047F6FF73394938481C
:106C9000A8F84030A8F88430A8F8C830A8F80C311B
:106CA000B381B383B385B3879047054600289FD14E
:106CB000A268002A95D047F6FF732F492C48A8F800
:106CC0004030A8F88430A8F8C830A8F80C31B38157
:106CD000B383B385B38790470546002888D1A2685F
:106CE000002A3FF47EAF47F6FF7324492048A8F8F6
:106CF0004030A8F88430A8F8C830A8F80C31B38127
:106D0000B383B385B3879047054600287FF470AFFF
:106D1000E26A002A3FF469AF1948134947F6FF7346
:106D2000A0F84030A0F88430A0F8C830A0F80C31AA
:106D30008B818B838B858B870D4812499047054645
:106D400000283FF452AF53E70F48FFF7BDFA012583
:106D5000284611B0BDE8F08F3846CDF8289002F0F3
:106D600081F80BF093FA00BFFC3A0020CC2B0020F6
:106D700094390020F42B00201C2C0020442C0020EF
:106D8000EC3900206C2C0020304A030010B40E4B6C
:106D90001A789868DC6888604FF0010C0020022A9D
:106DA00081F800C08C610A7581F82D0007D05B68FE
:106DB0005DF8044B4B60002081F830007047034AB7
:106DC0005B6812681344F3E7EC2A00204439002082
:106DD00010B4114B93F8D020D3F8D800D3F8DC408E
:106DE00088604FF0010C0020022A81F800C08C61FD
:106DF0000A7581F82D0008D0D3F8D4305DF8044B23
:106E00004B60002081F830007047044AD3F8D4303A
:106E100012681344F2E700BFEC2A00204439002036
:106E20002DE9F84FDFF85C90DFF85CB0124E134D9F
:106E3000134FDFF858A009F1050847F6FF7419F859
:106E4000013BA6F8404003EBC30307EB830359461D
:106E5000DB68A6F88440A6F8C840A6F80C41AC81CF
:106E6000AC83AC85AC87504698470BF1280B08B92A
:106E7000C145E4D1BDE8F88FEC390020FC3A002090
:106E800048390020EC550400CC2B00209439002018
:106E900070B50B4A0B4E0346106898470A4A336890
:106EA0000024146043B1094D55F8040BFFF716FA9E
:106EB00033680134A342F7D80020306070BD00BFB2
:106EC00044390020903B00208C3B0020643B002094
:106ED000094A0A4B12685A6002F5007102F54070C7
:106EE000C3F89400C3F8A410C3F8B420C3F8C410C6
:106EF000C3F8D420704700BF44390020EC2A00209A
:106F000010B50446006808B1FFF7E8F9204610BD47
:106F100008B530B130F8023CC01ABDE80840FFF7B0
:106F2000DDB9034B034A04485A2109F0E1FD00BFD3
:106F3000605604006456040090560400431E034249
:106F400010B514D1044680B179B1481C2044012108
:106F5000FFF7C2F9024640B1631C0344644203EAEE
:106F60000400821A20F8022C10BD002010BD034B33
:106F7000034A0448372109F0BBFD00BFD85604007E
:106F8000F4560400905604002DE9F0410E460569C0
:106F9000984604461746FFF793F9C6E900011448DE
:106FA0006B689847E8B92B6939469847B0B96B695F
:106FB000A07A4146984788B994F90930012B02D04C
:106FC0000020BDE8F0816B69207B0799984728B9BC
:106FD0006B69E07A069998470028F1D06FF00200BB
:106FE000EFE701460348FFF76FF96FF00500E8E7A8
:106FF0003D6F02002C57040038B52DED028B0C4676
:107000004B68A568416892ED038A226805FB03F38B
:10701000994228BF1946036800209847F7EE007A86
:10702000B4EE678AF1EE10FA15D0D4E9012302FB21
:1070300003F383B10022236803EB8203D3ED007ACC
:1070400067EE887A0132C3ED007AD4E9013101FBA1
:1070500003F39342EFD8BDEC028B002038BD00BF94
:107060002DE9F04F83B00D4601909B46002B00F0B8
:10707000938000273E46B8466FF07F09019B297830
:107080001C68D4E90132032902FB03F398440BD0B6
:10709000092954D0012936D04448FFF715F96FF07B
:1070A0000C0003B0BDE8F08F03B34FF0000A236873
:1070B000D5ED037A03EB8A0393ED000A80EE270AED
:1070C0000AF0DEFE2A696B680AF1010ABDEEC00A09
:1070D00010EE100A104480F308029A55D4E90132E8
:1070E00002FB03F3534506F10106E0D80137BB4527
:1070F000C4D1A969B8EB910F01D041454ED1002010
:1071000003B0BDE8F08F002BF0D0B00006F1010C09
:10711000002122686B6802EB8102034412681A6046
:10712000D4E901320CEB010602FB03F301318B427F
:1071300000F10400EDD80137BB459FD1D9E7002B02
:10714000D4D04FF0000A2368D5ED037A03EB8A030D
:1071500093ED000A80EE270A0AF092FE2A696B6816
:107160000AF1010ABDEEC00A10EE100A10447F2891
:107170000246A8BF7F224A45B8BF4A469A55D4E97D
:10718000013202FB03F3534506F10106DBD8013758
:10719000BB457FF473AFACE79846AAE70448424684
:1071A000FFF792F86FF017007BE700BF78570400F5
:1071B0009C57040008B58C46D1E9012301780329C6
:1071C00002FB03F309D009292FD0012922D02F482F
:1071D000FFF77AF86FF00D0008BD8169994242D13E
:1071E000B1B10022436801699B5C90ED037A5B1AA0
:1071F00007EE903AF8EEE77ADCF8003067EE877A2F
:1072000003EB8203C3ED007A836901329342E9D82C
:10721000002008BD8269B3EB920F2BD14168DCF8E6
:10722000000009F0F9FC002008BD816999421AD1DB
:1072300000220029ECD0436801699B5690ED037A47
:107240005B1A07EE903AF8EEE77ADCF8003067EE6A
:10725000877A03EB8203C3ED007A8369013293429C
:10726000E9D80020D5E70A481A46FFF72DF86FF055
:10727000170008BD111EB8BF033105481A46891012
:10728000FFF722F86FF0170008BD00BF3058040068
:10729000EC5704002DE9F04F2DED028B91B006461E
:1072A0000A92104608EE101A4FF48C7200210B93CC
:1072B00009F0C0FC726B336DD418B4F1805F0C948C
:1072C00080F0C481E0000BF060FB8246A01C8000CF
:1072D0000BF05BFB0423036000F10803089044609B
:1072E0000993611E002C37D00529C3F3800340F2B7
:1072F000A181002B00F09980089900228A600C9AE5
:1073000001F10C00911E0C9AD41A089A023302EB78
:107310008303620803EBC2024FF000084FF000093C
:10732000E3E802899342FBD124F00103A34200EB7E
:107330008300A1EB03010FD00023036061B1012999
:10734000436009D00229836006D00329C36003D0BB
:107350000429036100D04361FEF7B2FF736BCDE9EE
:107360000E01002B63D000250AF10403099F079347
:10737000A9462CE0184610210AF082FF3C68079BC2
:10738000049A4AF8354043F835203369C144994599
:1073900000F2A580B369059A934240F0EE8096ED25
:1073A0000C0A069B18EE100A5A46214698470146D9
:1073B000002840F0FB80FEF781FF821C044600F0AD
:1073C0000D81736B0135AB4207F104072FD9B26B06
:1073D00005EB450102EBC10352F831200492D3E9D9
:1073E0000182D3F80CB05B690692102005930BF074
:1073F000BBFA044601214FEA8800FEF76DFF4FF00B
:10740000010323730123C4E901383B6820603C6019
:10741000002BB4D018680028ACD01A7B002AA9D061
:107420000D93FEF75BFF0D9BA4E709986BE7FEF752
:1074300047FF0E9B0A9CC01A0F9B61EB0301C4E936
:107440003A0100234FF47A720CF074F80B9BC4F8E5
:10745000DC00002B66D1336D00252BB9E3E0336DE2
:107460000135AB4240F2DF80716D0A9F01EB45119F
:10747000D1E90523C8688C68097987F800110B9950
:1074800001900291009751463046A04704460028DB
:10749000E5D0089B099F596807EB8106B74210D0D9
:1074A00056F8045D4DB1286818B12B7B002B40F0D5
:1074B000AB80284610210AF0E3FEB742F0D1089BCA
:1074C00059680898023189000AF0DEFE50460AF039
:1074D000D9FE204611B0BDEC028BBDE8F08F5C48B0
:1074E000FEF7F2FE089B099E596806EB8105AE4245
:1074F00010D055F8044D4CB1206818B1237B002BF7
:1075000040F08580204610210AF0BAFEAE42F0D14C
:10751000089B59680898023189000AF0B5FE6FF09F
:107520000404D3E701464B48FEF7CEFE0C9B03B3A1
:10753000494FDFF8348100255AF83530ABB19A68ED
:1075400000247AB11B6803EB840393ED000AFEF775
:10755000BFFE3846FEF7B8FE5AF835309A68013457
:10756000A242EFD84046FEF7AFFE0C9B0135AB427E
:10757000E2D13A48FEF7A8FE6DE73948FEF7A4FECF
:10758000089B099E596806EB8105AE42C2D055F8AA
:10759000044D44B1206810B1237B002B3AD1204622
:1075A00010210AF06DFEAE42F1D1B1E72D48FEF791
:1075B0008BFE089B099E596806EB8105AE42A9D057
:1075C00055F8044D3CB1206808B1237B2BBB204605
:1075D00010210AF055FEAE42F2D199E7089B099FAF
:1075E000596807EB8106B7423FF46BAF56F8045D6C
:1075F0003DB1286808B12B7B93B9284610210AF0C9
:107600003FFEB742F2D15AE7FEF768FE51E7FEF7B8
:1076100065FE77E7FEF762FEC1E7FEF75FFED6E79D
:10762000FEF75CFEE9E7FEF749FE831C044618BF3F
:1076300000242EE709987FE6102120460AF020FE5C
:1076400050460AF01FFE0AF021FEF9E70AF0D6FEC6
:107650005858040008590400DC6004001C59040058
:1076600084580400E05804001C68040030B5A5B03C
:1076700004460D4601920649882202A809F0CCFA78
:10768000019B2A46214602A8FFF704FE25B030BD23
:10769000505A04002DE9F04FD0E900869346A6EB3E
:1076A0000803474A0D46DB10464902FB03F38B42B1
:1076B00083B000F08180012B1A4638BF0122D31815
:1076C000074675D2A5EB080A002B62D10193182456
:1076D0009946DE46BEE80F0009EB0A0CACE80F0045
:1076E0009EE8030045458CE8030021D009F1180A03
:1076F000C646F446BCE80F00AAF118040FC49CE883
:1077000003000EF1180EAE4584E803000AF1180AD2
:10771000EFD1A5F118042C4BA4EB0804E40803FBFB
:1077200004F424F06044023404EB440409EBC40480
:10773000B54221D004F1180BAA46D646BEE80F0088
:10774000ABF1180CACE80F009EE803000AF1180A30
:10775000B2458CE803000BF1180BEED1AAEB050340
:10776000194A183BDB0802FB03F323F060430133A3
:1077700003EB430304EBC304B8F1000F02D040460F
:10778000FEF7ACFD019BBB60C7E9009403B0BDE808
:10779000F08F8B4228BF0B4603EB4303DC002046EF
:1077A000FEF798FD03198146019300F1180490E754
:1077B000064CA5EB080AF2E705480BF081F900BF7B
:1077C000ABAAAAAA55555505ABAAAA0AF8FFFF7F8E
:1077D0005C57040051B32DE9F84F0546D0E900305D
:1077E000A0EB0309AB683B4A1B1A4FEAE906DB1022
:1077F0000C4602FB06F602FB03F3374A9C42A2EB5F
:10780000060114D80346214600220139C3E90022AB
:10781000C3E90222C3E9042203F11803F5D104EB02
:10782000440400EBC4006860BDE8F88F7047A142D3
:107830004CD3B442274638BF3746F71944D2B8462E
:10784000B7BB08EB0903214600220139C3E9002236
:10785000C3E90222C3E9042203F11803F5D1D5E9F3
:10786000009BD94514D008F1180ACE46BEE80F0097
:10787000AAF1180CACE80F009EE8030009F1180902
:10788000CB458CE803000AF1180AEED1D5F800B018
:10789000BBF1000F02D05846FEF720FD344404EB44
:1078A000440408EBC404C5E90084AF60BDE8F88F68
:1078B000974228BF174607EB4707FF003846FEF7F9
:1078C00009FD80460744BCE7044FF7E704480BF086
:1078D000F7F800BFABAAAAAA55555505F8FFFF7FD8
:1078E000305904002DE9F04F2DED048B89B090F84C
:1078F0003C209DF85C3004466AB190F94420531E48
:10790000052B00F2F281DFE813F00C0137002F00A5
:1079100037002F003700B0F86C20032A33D0169AB6
:1079200092F80051D5B90A78092A00F00481B0F81C
:107930006E20496892B1002B40F06781169AD4F806
:10794000845051F8040B55F823509560D060B4F87A
:107950006E000133984202F10802F0D8002009B00D
:10796000BDEC048BBDE8F08F0978092904D001F043
:10797000FD03012B40F007816FF0140009B0BDEC4E
:10798000048BBDE8F08F169B93F80031002BE5D1F6
:10799000D0E908572D093F096B1E7A1E08EE103AF0
:1079A00009EE102A4B68009318EE102A19EE101AEF
:1079B00001FB02F1002900F019819FEDCF7A03EB62
:1079C0008102F0EE476AF3EC017AF4EE477AF1EEC9
:1079D00010FAC8BFB0EE677A9A4276EEA76AF2D183
:1079E00007EE901AF8EEE77A86EEA76A169BC34E6A
:1079F00083ED447A83ED436A3378BFF35B8F13F0F2
:107A0000010900F04D81DFF80483DFF810B3D8E9F5
:107A100000324FF0000A934208EE90AAA5F102024C
:107A200018BFC8F804300192023FD146009A0025E1
:107A300002EB8A0602E00135BD4256D8F6EC017A27
:107A400094ED107AF4EEC77AF1EE10FAF3DBCDED97
:107A5000077AD4ED097ACDF808B0F8EE676A17EE28
:107A6000902AF8EE497A19EE101A86EEA77AB2FB40
:107A7000F1F206920DF1080E9C4607EE905AF8EED0
:107A8000E77AF8EE486A27EE277AD4ED087AB8EE5E
:107A9000676A17EE902AC6EE267AF8EE686A18EE44
:107AA000101A67EEA67AB2FBF1F20592D8F8082018
:107AB000BCEEC77AFCEEE77A9A428DED037ACDED03
:107AC000047A00F09A80BEE80F00ACE80F009EE850
:107AD0000300D8F804308CE803001833C8F80430E9
:107AE0000135BD4209F10109A8D918EE902A0132E9
:107AF00008EE902A18EE102A18EE901A9244019A75
:107B0000914293D9E18FD8F80000494500F3A28053
:107B10007B4A1B1ADB1003FB02F2169BC3E94102EE
:107B20001CE77848FEF7D0FB6FF0090009B0BDEC08
:107B3000048BBDE8F08FD1ED048AB0F86E204F6859
:107B400091ED039AF8EEE88A002A3FF407AF03BBF1
:107B5000169A791E11F9010F07EE900AF8EEE77AEE
:107B6000D4F8840077EEE87A50F82300906067EE4E
:107B7000897A0133C2ED037AB4F86E00984202F1BB
:107B80000802E7D8EAE66048FEF79EFB6FF00900BE
:107B9000F4E6DFF88C91DFF88C81169E013F17F92F
:107BA000013F08EE103AB8EEC88AD4F8843038EEB7
:107BB000688A53F8251028EE098A4846FEF784FBA8
:107BC000B0EE480AFEF784FB4046FEF77DFBD4F892
:107BD000843053F82530B36086ED038AB4F86E30F4
:107BE0000135AB4206F10806D9D8B7E6DFED427A97
:107BF000B0EE677AF0EE676AF6E61946434802AAE5
:107C0000FFF748FDD8F804306AE7DFF81491DFF891
:107C10001481169E0F46D4F88430B7EC018A53F8CD
:107C200025104846FEF750FBB0EE480AFEF750FB21
:107C30004046FEF749FBD4F8843053F82530B36052
:107C400086ED038AB4F86E300135AB4206F10806C2
:107C5000E1D883E62A4D1A1AD21005FB02F29142AE
:107C600037D80CD201EB410600EBC6079F424FEA22
:107C7000C60604D0F610C8F8047005FB06F2894564
:107C8000BFF44BAF09EB490300EBC30300255D6173
:107C9000E18F09F10109494503F11803F7D83CE7E1
:107CA00030460AF052FEDFF8648000283FF4ADAEA3
:107CB0004FF0000A4FF0000BC8E900AB144A154919
:107CC000C8F80890404608F00EFF30460AF049FE1A
:107CD0009BE6891A0D48FFF77DFDD8E900031B1AC2
:107CE000DB10E18F05FB03F2C9E70B481146FEF7F5
:107CF000EBFA6FF0090041E600000000943B002021
:107D0000ABAAAAAA4C59040094590400983B00203D
:107D1000E82A0020016F0200CC590400005A040038
:107D2000085A04001C6804002DE9F04FC9B09B46B6
:107D3000539E9DF8509133690493924604460391F3
:107D4000FEF7BEFA28AF0DF1E008CDE9060118AB49
:107D5000CDE9008708AA06A93046FFF715F90346C2
:107D600018B1184649B0BDE8F08F606B256D284406
:107D70005B4600905246039808A9FFF771F9034645
:107D80000028EED133699B68DDE9066A9847002830
:107D900057D1FEF795FA529B801B61EB0A01C3E9AC
:107DA0003C014FF47A7200230BF0C4FB529BC3F8E2
:107DB000E000B9F1000F3FD1529B0093CDF8049041
:107DC0003B46424618A92046FFF78CFD0346C8B142
:107DD000529A92F8002112BB0393049B1A48DA6866
:107DE0009047FEF76DFA069A529B801A079AC3F8DD
:107DF000F00061EB0201C3F8F410039B184649B090
:107E0000BDE8F08F0590FEF759FA529A059B92F85B
:107E10000021023008BF6FF00103002ADCD0626B42
:107E20000593039B18A853F83210FFF7C3F9059B7D
:107E30000028D1D0034694E701460448FEF744FAEF
:107E4000BAE76FF00203C3E7116F0200105A040093
:107E50002DE9F0412DED028B82B091ED038ADDF822
:107E60002880D2ED038A054673B318EE100A1C462B
:107E70000BF01EF8064618EE900A0F460BF018F8A5
:107E800002460B46304639460BF06AF80646E06873
:107E90000F460BF00DF802460B46304639460AF005
:107EA000A7FE0646D8F80C0021F000470BF000F8BA
:107EB00002460B46304639460BF07CF926A3D3E93F
:107EC00000230BF0C9FA08B328EE288AB5EEC08A61
:107ED000F1EE10FA29DB18EE100A0AF0E9FF044669
:107EE000D8F80C000D460AF0E3FF02460B46204688
:107EF00029460BF05FF90B460B9902460020C1E9B9
:107F0000002302B0BDEC028BBDE8F0810E4B2C6962
:107F10000E4A009328460E494FF49E73A047012055
:107F200002B0BDEC028BBDE8F0810A4B2C69074A18
:107F300000932846064940F24913A047012002B0A9
:107F4000BDEC028BBDE8F081945B0400285B04006B
:107F50007C5B0400B85B04007B14AE47E17A943F7D
:107F60002DE9F0412DED048B92F800C0BCF1030F18
:107F700082B005461C4654D0BCF1090F26D0BCF196
:107F8000070F15D15A4E47F6FF77012992ED038A64
:107F9000D2F8108024D003296BD0022944D00C9B46
:107FA000266000201F6002B0BDEC048BBDE8F081AC
:107FB000504B0469504A0093504940F28F13A04738
:107FC000012002B0BDEC048BBDE8F081012992EDE7
:107FD000038AD2F810804FF07F076FF07F06DAD166
:107FE0009FED470A80EE080A09F04AFFDFED457A67
:107FF000B4EEE70AF1EE10FA2CDBDFED437AB4EED3
:10800000E70AF1EE10FA25D8FDEEC07A002017EE4F
:10801000903A4344B342B8BF334623600C9B1F6081
:10802000CFE7FF270026B0E7BFEE000A80EE080A80
:1080300009F026FFDFED338AB4EEE80AF1EE10FA1C
:10804000F0EE407A06DB9FED309AB4EEC90AF1EE0D
:1080500010FA49D92D4B2C69274A00932846274905
:1080600040F25713A047012002B0BDEC048BBDE8DD
:10807000F0819FED230ADFED238A80EE080A09F0E4
:10808000FFFEB4EEE80AF1EE10FAF0EE407AE1DB22
:108090009FED1D9AB4EEC90AF1EE10FADAD8B1EEEE
:1080A000080AFDEEE77A80EE080A17EE903A43449C
:1080B000B342B8BF3346236009F0E2FEB4EEE80AEB
:1080C000F1EE10FAC6DBB4EEC90AF1EE10FAC1D82F
:1080D000BDEEC00A002010EE103A43449F42A8BFF4
:1080E0001F460C9B1F606CE7B7EE000AD9E700BF84
:1080F0000080FFFFD45B0400285B04007C5B04006D
:1081000000000000000000CF0000004FDC5B040016
:108110002DE9F04157EC106B80460D4610EE100A29
:108120000022002339460BF083F928B10023C8F858
:1081300000302B60BDE8F08147EC106B0446284608
:1081400009F07CF9134B002251EC100B0AF008FFE8
:1081500041EC100B09F044FE51EC100B0BF052FAFD
:108160004FF00042824274EB0106034610DBA1424D
:1081700008BF90422A6802BF01324FF080432A6054
:108180001F32BCBF00232B60C8F80030BDE8F0816F
:1081900008F0A2FC0000E041436B0BB1242118471A
:1081A00010B508F099FC00BF2DE9F04FD1F8109000
:1081B00084688BB0B9F1000F00F0BE80D1F814A034
:1081C0000D46BAF1000F00F0B78023685B4A9B6947
:1081D00012680646204698470746002863D0236861
:1081E000574A9B69126829462046984780460028CE
:1081F00067D02368534A9B691268294620469847EE
:108200002368514ADB69126829468346204698470D
:108210000546002863D03A78037893422AD198F82B
:108220000030122B69D09AF800103046CDE902597F
:10823000CDE9008B3B4600F02FFB0646B0B9236822
:1082400039465B6A20469847236841465B6A204668
:108250009847BBF1000F04D0236859465B6A20465B
:108260009847236829465B6A2046984730460BB0FA
:10827000BDE8F08F1046376900F0C0FE044628784C
:1082800000F0BCFE3149324B324ACDE90031CDE934
:1082900002403149304640F27963B8470126304602
:1082A0000BB0BDE8F08F2D4B34692A4A009330465D
:1082B0002B494FF4CE63A047012630460BB0BDE8F2
:1082C000F08F284B3469234A00933046244940F20A
:1082D0007363A047012630460BB0BDE8F08F224BF8
:1082E00034691C4A009330461D494FF4CF63A047C0
:1082F000012630460BB0BDE8F08FD8F8081051F8D1
:10830000042B049205A8920008F086FC049800282B
:1083100010DD04AB03EB8000012153F8042F9842D9
:1083200002FB01F1F9D109F12002F36B30469847C5
:108330003A7878E70121F6E708F0CEFBFC5D04000F
:10834000045E0400F85D0400005E0400B85C0400F4
:10835000C85C0400045C04009C5C0400605C0400D5
:108360007C5B0400745C0400885C04002DE9F04F21
:10837000D1F81480DBB0B8F1000F00F03682A04BCA
:108380001A680C46054600F0D7FA9E4B21461A683B
:108390000646284600F0D0FA9B4B21461A6807464D
:1083A000284600F0C9FA994B21461A6881462846AA
:1083B00000F0DCFA21690446002900F01682307AC8
:1083C00007280AD0092802D0012800F0258100F0F2
:1083D00015FE01205BB0BDE8F08F387A0928F6D190
:1083E00050A800F023FA31462EA800F0CBFA3368EB
:1083F0001293394634A800F0C5FA3B6814934946F5
:108400003AA800F0BFFAB9F1000F01D0D9F80090F6
:10841000214640A800F0B6FA002C00F0E68123685F
:108420001593529B0593539B34980393DDE9547342
:10843000569A01930128DDE9508E0C9240F3D581C4
:108440004099002940F3D181934200F3CE814A1E26
:10845000012400239A4200F0AB8140AD05EB830577
:1084600001336D68994205FB04F4F3D15AAB03EB79
:10847000820203EB800352F8642C53F89C3C119465
:108480009A420E9200F3B1815AAB03EB800050F890
:10849000983C1E46119B002B40F3AE80039D5C4828
:1084A000CDF8089005F50042C7F10E03141447F605
:1084B000FF718542C8BF0C460122A3F1200102FAD8
:1084C00001F1204607940C46C3F1200122FA01F184
:1084D000214302FA03F30A9171000993139107F102
:1084E0001F03129906930022C3170D92C7F10F07BD
:1084F000089301EB460C15460F92B1460E9B002BDC
:108500002B4410936CDD159A12990D98029C149EC1
:1085100001EB400102EB430302EB45050B91049391
:10852000B9F1000F4FF0000240F34081DDF82CA0BC
:1085300006F1FF3B10463AF9023B03EB08011BF939
:10854000013F734401FB03F39A1840EBE370D445F9
:10855000F1D1029B23B12368D218636840EB03007A
:10856000039B002BC0F23A81069B262B00F22F8141
:108570004FF0FF31914200F500434FF6FF7171EB70
:108580000303C0F01D81089B02FB03F1079B03FB63
:108590000011A2FB0320099BD2180A9B014441EB66
:1085A000030122FA07F3C7F1200201FA02F2134392
:1085B000B7F120025CBF41FA02F21343059A13445B
:1085C000019A9A4200F3E3800C9A9342A8BF1346A3
:1085D00025F8023B049B9D4204F108044E449FD1C0
:1085E0000D9A0F9B109D4A440D92139A9444119A30
:1085F00001339A420F9381D100205BB0BDE8F08F28
:10860000FC5D0400045E0400F85D0400005E0400EC
:10861000FFFFFE7F0000000098F8001046A800F061
:1086200019F9314616A800F0ADF9336805933946BB
:108630001CA800F0A7F9002F00F0D780494622A817
:10864000D7F8008000F09EF9B9F1000F01D0D9F8F9
:108650000090214628A800F095F9002C00F0C58074
:1086600028982368DDED4D6A9DED4E6A1C9C0393AE
:10867000421E00F1BA80002840F39F8001210023B0
:108680009A4275D028AD05EB830501336D68984299
:1086900005FB01F1F4D10291A31E00F1A6805AA9B5
:1086A00001EB830301EB820253F8F41C52F8C43C43
:1086B0000491994240F09980631E00F196805AAA75
:1086C00002EB830353F8F40C029B002B94DD00298A
:1086D00092DD8A000692039A1FED325A4FF0000C89
:1086E00002EB8106E346E646CDF804C04F46059A04
:1086F000019B134484449946039B4FEA8C0402EB8C
:108700008C0A03EB8B0339460194002200281FEDED
:108710003F7A0ADD08EB82054C46F4EC015AF5EC91
:10872000017A5445A5EEA77AF7D16FB3D1ED007A5F
:1087300077EE877AF4EE676AF1EE10FAC8BFF0EED2
:10874000667AB4EEE76AF1EE10FA15D4E3EC017A3A
:10875000B34201F104010244D8D1069B1E44049B9C
:108760009B44029B0EF1010E9E45C0D1002044E7C0
:10877000531C984284D18EE7A3EC016A9E4201F11A
:1087800004010244C2D1E8E7F0EE457AD0E725F8CB
:10879000022B049BAB4204F108044E443FF420AF8B
:1087A000B9F1000F4FF000023FF7C0AE1046D0E61F
:1087B000531C99427FF44EAE58E6012302936BE7B7
:1087C0000B4B0C4A0C484FF48B7108F091F90B4B92
:1087D000084A094840F2151108F08AF9084B054A81
:1087E00005484FF48A7108F083F908F075F900BF65
:1087F000A85D0400F05C0400385D04008C5D04009A
:10880000D45C040010B582B000210091044B054AED
:108810000549044600F084F8204602B010BD00BFB0
:108820006D830200A98102009981020030B4D1E970
:10883000054264425242C0E90042CC690A68C0E97C
:108840000242D1E90154CA688261C0E9045430BCD3
:10885000704700BF012911D003290AD002290BBF9C
:10886000094A0A4B4FF07E536FF40002C261036263
:108870007047074B03620022C2617047034B0362DB
:108880000022C261704700BF000080BFFFFF7F7FF2
:108890000000C040000000002DE9F04184B0012A32
:1088A0000D9D04D10024204604B0BDE8F0819FED69
:1088B0001A7B1E460C9B009302AB01938846DDE9B0
:1088C0000A2331468DED027B0746FFF7C1FA0446C5
:1088D0000028E8D19DED020B291D2846FFF718FC62
:1088E00033696B610A9B1B6993B90C9BAC611A6974
:1088F000EA6105F10C0300930C9A05F10803414667
:108900003846FFF72DFB0446204604B0BDE8F08151
:1089100008F0E2F8AFF30080000000000000000063
:10892000C0E902230160009B43600021C0E90411FB
:10893000C0E906110162704710B5A8B1A1B109687C
:108940008C46002A5CF8044B0CDBA2420ADA5CF885
:108950002240002C06DB01EB8202BDE81040036DD3
:1089600051681847002010BD08F0B6F830B129B1A1
:108970004968036D01EB82025168184710B508F091
:10898000ABF800BF10B5044651B1496841B151F888
:10899000042B40F8042B920008F03EF9204610BD4D
:1089A00000232360204610BD2DE9F04F2DED068BEE
:1089B000002291B00C460646FFF7BEFF0022054696
:1089C00021463046FFF7D2FF2369002B00F0FF80DD
:1089D0002F7A072F03D0092F01D0012F08D0384656
:1089E00000F00CFB012011B0BDEC068BBDE8F08F50
:1089F00093ED007B0446294604A8B0EE47AAF0EEAA
:108A000067AAFFF7BFFF2B68019321460AA8FFF76B
:108A1000B9FF002C00F0DB80049823680093002845
:108A200000F1FF3240F3C4800A9C002A50D0002C91
:108A3000059940F3CC800B9B994240F0C880012AF5
:108A400045D0012C069900F0C2800C9B994240F061
:108A5000BE80022A3BD0022C079900F0B8800D9B03
:108A6000994240F0B480032A31D0032C089900F0D9
:108A7000AE800E9B8B4240F0AA80042A27D0042CA3
:108A8000099900F0A4800F9B8B4240F0A080052A3A
:108A90001DD0052C00F09B80109BA34240F09780D6
:108AA00006239A420ED004A901EB83019C424D6833
:108AB0004FEA830140F38B800AAE314449688D420E
:108AC00040F0858001339842EBD1002A7FDB0127FB
:108AD00000239A4268D004A901EB8301013349685D
:108AE000984201FB07F7F4D110AB03EB8203A242DB
:108AF00053F82C1C6BDA53F8143C994267D1002FC1
:108B00004CDD8A000292009A039702EB8106019ADB
:108B10004FF0000802EB810BC1468A46BAF1000F04
:108B200033DD019B9FED2B8A03EB88074FEA880416
:108B30003946F1EC017AB4EE678AF1EE10FA48BFDB
:108B4000B0EE678A5945F4D1009BDFED238A51ECE2
:108B50001A0B1C440AF09EFC09EE100A2546B7ECDD
:108B6000010A30EE480A20EE090A09F0AFF95F4524
:108B700078EE808AA5EC010AF1D194ED007AC7EE77
:108B8000287AE4EC017AB442F7D1029B1E449B445C
:108B9000039B09F101099945D044BFDB002011B0C6
:108BA000BDEC068BBDE8F08F531C984291D19BE73A
:108BB000002A0CDB0A9910AB03EB82038A4253F8BC
:108BC0002C0C04DA53F8143C9842194699D007F05B
:108BD00083FF00BFFFFF7FFF0000000010B582B0E1
:108BE00000210091044B054A05490446FFF798FE11
:108BF000204602B010BD00BFA9890200CD8C020042
:108C0000BD8C0200F0B50C78092C85B00E460546E7
:108C100010D0072C0ED0012C2CD11078012816D1A1
:108C200018680AF045F90A9B0024C3E900012046B0
:108C300005B0F0BD20462C6900F0E0F93378194901
:108C400002462846A0470124204605B0F0BD2F6902
:108C500000F0D4F90646204600F0D0F9124B0390FC
:108C6000CDE90136114B0093114A1249A123284640
:108C7000B847E9E720462E6900F0C0F90446012014
:108C800000F0BCF908490C4B094ACDE90240CDE996
:108C9000003128460749A023B0470124204605B0EB
:108CA000F0BD00BF085E04007C5E0400B85C0400F8
:108CB000245E04009C5C0400C85C0400436B0BB1A0
:108CC0003821184710B507F007FF00BF2DE9F04322
:108CD0000B6885B0044613B11B68012B10D0012628
:108CE00025693B4A0192CDE902363A4B00933A4A54
:108CF0003A49AF232046A847304605B0BDE8F08387
:108D00004E680D46002E2DD03668012E2AD1876878
:108D10003B6800229B69384698478046002845D02A
:108D200083681B68002B38DD3B680022DB6929461D
:108D3000384698478146002841D02B6923B30093D9
:108D40006B694A4641462046FFF75CFF3B68414657
:108D50005B6A0646384698473B6849465B6A384630
:108D60009847C9E71A4B2569019301211C4B0093D1
:108D7000CDE9026120460E46174A1849B023A8479C
:108D8000304605B0BDE8F083164B2569124A0093C2
:108D90001549B7232046A847AEE7144B25690E4A6C
:108DA00000931149B3232046A847A5E7104B256936
:108DB000094A00930C49B2232046A8479CE70D4B73
:108DC0002569054A00930849B5232046A84793E73B
:108DD000E45E0400A85E0400245E04008C5E0400CF
:108DE000B85E0400E85E04007C5B0400CC5E040016
:108DF000605C0400885C04004B1E1844B0FBF1F07A
:108E000001FB00F0704700BF2DE9F04105468846A0
:108E1000C06904211E461746FFF7EEFFAB69844682
:108E20007BB103EB430300EB83030022DCF8044037
:108E30000CF10C0C013408BF01329C45F6D10B2A11
:108E40000DD84FF0FF33CCE90137CCF80080AB6987
:108E50003360AB690133AB610020BDE8F0810120D4
:108E6000BDE8F081704700BF406803685B69184740
:108E7000036953F82100704730B5D0E90145D5E9C1
:108E8000042583B00B46C1682068009545682046DC
:108E9000A84703B030BD00BF406803689B6818470F
:108EA0008268D2E9043003EBC00301EB410158684A
:108EB00000EB8100704700BF10B51821044609F08F
:108EC000DFF9204610BD00BF1346D0E90102526908
:108ED000FFF79ABF30B58B68002A53F8044B83B074
:108EE00016DB944214DD53F82230002B10DB0268AD
:108EF0000B4C5269A24201460DD1D0E90104D4E9DC
:108F000004250468C96800956468A04703B030BDB3
:108F1000002003B030BD194603B0BDE83040104713
:108F2000798E020030B50B68002A53F8044B83B0E9
:108F300016DB944214DD53F82230002B10DB02685C
:108F40000B4C5269A24201460DD1D0E90104D4E98B
:108F500004250468C96800956468A04703B030BD63
:108F6000002003B030BD194603B0BDE830401047C3
:108F7000798E020030B54B68002A53F8044B83B059
:108F800016DB944214DD53F82230002B10DB02680C
:108F90000B4C5269A24201460DD1D0E90104D4E93B
:108FA00004250468C96800956468A04703B030BD13
:108FB000002003B030BD194603B0BDE83040104773
:108FC000798E0200C0E902324160034B0360002148
:108FD000C0E90411704700BF2C5F04000EB400B557
:108FE00082B003A951F8040B019100F005F802B01A
:108FF0005DF804EB03B07047704700BF12289ABFBA
:10900000024B53F820000248704700BF0C60040078
:10901000585F04000649074A074B9B1A03DD043BCF
:10902000C858D050FBDC02F025FBFDF70DF900001D
:1090300074740400E82A002028390020FEE7FEE7C7
:10904000FEE7FEE7FEE7FEE7FEE7FEE7FEE7FEE7F8
:10905000704700BF00B583B0044B0093044A40231F
:1090600000F036F803B05DF804FB00BF7590020015
:10907000A83B002002B32DE9F843114B114E88465E
:109080001446032743F001090025224608EB050199
:10909000002005F0E7FD0346E41A4FF47A401D4432
:1090A00023B9337833B1C847013F06D00123337069
:1090B000002CEAD1BDE8F88370473770BDE8F8832B
:1090C00060600400A53B0020704700BF05F0A0BE13
:1090D000F0B595B0084600240E4617461D4602F02E
:1090E0008DF91A9A0D922346082205A93046CDE93A
:1090F000095408978DF82C400C9402F0E3F9DDE94F
:1091000006219DF814308DF81140CDE9021203F0CC
:109110000302012A28D0022A04D0304602F072F954
:1091200015B0F0BDBDF81650C3F3C203C5F38915E1
:109130008DF810300827082D2C4628BF08243B4600
:1091400022460EA9304602F0BDF92D1B08AB02AA3B
:1091500021460EA8274400F041FD002DEBD13046FA
:1091600002F050F915B0F0BDBDF814100598C1F328
:109170008312C3F3C203C0F39525C1F383148DF8A2
:1091800010300EA930469200082302F09BF908AB7C
:109190000093224602AB0EA9284600F0A9FC3046F7
:1091A00002F030F915B0F0BD08B5FFF78FFF0448A5
:1091B000042100F019FC034B01225A7108BD00BFC5
:1091C00018710400D02C0020064B074810B500226F
:1091D0001A7002F0C7F8044610B9044802F0E8F922
:1091E000204610BDB83C0020747004009C60040050
:1091F00030B499B10D490E4D491BC90813D00D4C1F
:10920000002302E0013399420AD034F8232082423D
:10921000F8D1184655F8300030BC7047044DF9E7D6
:10922000002030BC70470846F6E700BF1871040004
:109230008870040028390020094B013903EBC00075
:1092400003290BD8DFE801F0040208060420704768
:1092500002207047407970470079704700207047BE
:10926000887004002DE9F043904CD4E901239A4220
:1092700085B060D00023C4F81834BFF34F8FA568C1
:10928000EAB2D31C04EB830114F82330580718D535
:1092900066680B7803F00303012B42D0022B03D145
:1092A0004B88023505EB9315EAB2D4F81804D31CA9
:1092B00004EB830128B9AE4239D914F823305B0797
:1092C000E7D404EB82026B1CDBB2D26804EB8303AD
:1092D00002F00301DB680229CDE9012305F1020652
:1092E0002DD0012900F09280D4F810543DB12B68A4
:1092F00028469B689847EB681D68002DF7D16C489D
:109300006C4B6D49C01AC008000440F0020000F028
:10931000D9F8D4E90130C01A18BF012005B0BDE862
:10932000F0830B880235C3F383131D44BCE7A660AA
:1093300005B0BDE8F083002005B0BDE8F083BDF8BE
:1093400006305E48C3F389184546502D28BF502586
:1093500005F1080165F38F13C1F30901ADF806307B
:1093600002F002F807460028BED002F047F80023BA
:10937000082201A9384602F071F8F343DBB2013349
:10938000B5EB830F4FEA83027ED9F1B25FFA82F91F
:10939000033104EB810138460823A5EB090502F0EF
:1093A0005DF8EDB209F10803454903F0FC032A46D4
:1093B000384602F053F808F1030806EB9806D4F893
:1093C0001834002B6ED1D4F8105465B1EB685A797B
:1093D00028463946002A61D02B681B689847EB68FD
:1093E0001D68002DF2D1384602F00CF800230DF173
:1093F00003008DF8033001F08BFBD4F8183403B967
:10940000A6609DF8030001F0A9FB82E7BDF80420E7
:109410002A48C2F38313062B28BF062363F389125D
:10942000023303F00F018900ADF8042001F09CFF26
:10943000074600283FF458AF01F0E0FF0023082260
:1094400001A9384602F00AF8BDF8043013F4707F21
:10945000B5D06FF001094FF00808A9EB0509F1B28A
:1094600003314346042204EB8101384601F0F6FF44
:10947000BDF804300136C3F3831309EB06029342AF
:1094800008F10408EBD89AE7F1B203312A4604EB5D
:1094900081010823384601F0E1FF8CE71D68002DAB
:1094A00094D1A0E7384601F0ADFF32E7B83C002088
:1094B000D07004008870040084600400747004009C
:1094C000C43C00202DE9F04FDFF89CA187B00023B9
:1094D00006460DF10B008DF80B30019101F018FBE1
:1094E000DAE9018303F58073A3EB0803012B00F293
:1094F00081800AF21C450AF583670AF214441AE0D7
:10950000BDF80E30C3F3891303334FEA11490BEB57
:10951000930B204601F0A2FB494600283AD028468A
:10952000CAF808B001F076FBDAE9012303F580738D
:109530009B1A012B5FD80121284601F06BFB3846AE
:1095400001F080FB204601F07DFBDAF80830DAB24A
:10955000D11C0AEB810C1AF8211001F00400490714
:1095600028D40AEB82015A1CC9680391D2B201F0D7
:1095700003000AEB82020128D16803F1020B31D00B
:109580000228BDD0204601F069FB4FF00009494692
:109590000028C4D12846C5E7BCF802300EEB93136F
:1095A000DAB2D11C0AEB810C1AF8211001F0040088
:1095B0000028D6D09CF8001001F0030101290AD040
:1095C000022903F1020E02F10301E5D00AEB810C3E
:1095D0000028EFD1C5E7BCF800200233C2F38312A4
:1095E0001344DDE7BDF80C30C3F383134FEA114990
:1095F0009B448EE74246D3B20333023205219DF8E5
:109600000B004AF82310CAF8042001F0A7FA002141
:10961000144801F0DDFA80F31001F300019A03F021
:10962000380343F0010308F1010043EA8223C0B28A
:109630005FFA88F209040AEB8000033241EA16411E
:10964000C1604AF822309AF8003013B907B0BDE87B
:10965000F08FFFF707FE0028F8D0FFF703FE002881
:10966000F7D1F3E7D4400020B83C00202DE9F04FBB
:10967000DFF8ACB187B0002306460DF10B008DF882
:109680000B30CDE9001201F043FADBE9018303F569
:109690008073A3EB0803022B00F281800BF21C45C0
:1096A0000BF583670BF214441AE0BDF80E20C2F3E9
:1096B000891203324FEA114A09EB9209204601F060
:1096C000CDFA514600283AD02846CBF8089001F050
:1096D000A1FADBE9012303F580739B1A022B5FD803
:1096E0000121284601F096FA384601F0ABFA2046EF
:1096F00001F0A8FADBF80830DAB2D11C0BEB810CD0
:109700001BF8211001F00400490728D40BEB82015B
:109710005A1CC9680391D2B201F003000BEB82021C
:109720000128D16803F1020931D00228BDD02046BA
:1097300001F094FA4FF0000A51460028C4D128469F
:10974000C5E7BCF802300EEB9313DAB2D11C0BEB79
:10975000810C1BF8211001F004000028D6D09CF8E1
:10976000001001F0030101290AD0022903F1020EC1
:1097700002F10301E5D00BEB810C0028EFD1C5E726
:10978000BCF800200233C2F383121344DDE7BDF8B6
:109790000C20C2F383124FEA114A91448EE74246ED
:1097A000D3B20333033245219DF80B004BF823104D
:1097B000CBF8042001F0D2F908F10203DBB20BEB85
:1097C0008303019ADA600021144801F001FA80F362
:1097D0001001F300009A03F0380343F0410308F14D
:1097E000010043EA8223C0B25FFA88F209040BEB5E
:1097F0008000033241EA1641C1604BF822309BF8E9
:10980000003013B907B0BDE8F08FFFF72BFD00283B
:10981000F8D0FFF727FD0028F7D1F3E7D440002068
:10982000B83C00202DE9F04FDFF8B8B189B0002432
:1098300006460DF113000393CDE901128DF8134094
:1098400001F066F9DBF80830DBF8047003F580738B
:10985000DB1B032B00F281800BF21C450BF58368A8
:109860000BF214441AE0BDF81630C3F38913033326
:109870004FEA11490AEB930A204601F0EFF94946F5
:1098800000283AD02846CBF808A001F0C3F9DBE95C
:10989000012303F580739B1A032B5FD8012128460F
:1098A00001F0B8F9404601F0CDF9204601F0CAF9BF
:1098B000DBF80830DAB2D11C0BEB810C1BF821105D
:1098C00001F00400490728D40BEB82015A1CC96837
:1098D0000591D2B201F003000BEB82020128D1689E
:1098E00003F1020A31D00228BDD0204601F0B6F9BA
:1098F0004FF0000949460028C4D12846C5E7BCF806
:1099000002300EEB9313DAB2D11C0BEB810C1BF877
:10991000210000F004000028D6D09CF8001001F0CF
:10992000030101290AD0022903F1020E02F1030109
:10993000E5D00BEB810C0028EFD1C5E7BCF8002087
:109940000233C2F383121344DDE7BDF81430C3F3CE
:1099500083134FEA11499A448EE73A46D3B2033350
:10996000043285219DF813004BF82310CBF8042016
:1099700001F0F4F8BB1CDBB20BEB8303029ADA6054
:10998000FB1CDBB20BEB8303039ADA600021144863
:1099900001F01EF980F31001F300019A03F038037F
:1099A00043F08103781C43EA8223C0B2FAB209046F
:1099B0000BEB8000033241EA1641C1604BF82230C4
:1099C0009BF8003013B909B0BDE8F08FFFF74AFCEF
:1099D0000028F8D0FFF746FC0028F7D1F3E700BFD6
:1099E000D4400020B83C002030B4154DD5F81014F8
:1099F0000446002071B10B4601E01B6853B1DB68DF
:109A00001A798242F9D101300A28F3D14FF0FF30A0
:109A100030BC7047E3681871D5F810344BB1DA6880
:109A2000E36812681A60D5F81034DB681C6030BC3B
:109A30007047C5F81044E268136030BC704700BF3F
:109A4000B83C002038B5084BD3F8104401251D70F0
:109A50004CB1E3685D71236820465B689847E36812
:109A60001C68002CF5D138BDB83C002030B5C38847
:109A700085B004460D4623BB237A052B1FD0627A9E
:109A800082B9144AA08852F8232003920021FFF7DC
:109A9000AFFB039A10490346284605B0BDE83040A5
:109AA00001F056B91946A088FFF7C6FB0B4B0C49CD
:109AB00053F82020284601F04BF9237AE1E705B05E
:109AC00030BD08490091084A0849284601F040F98C
:109AD000D2E700BF74610400D46004005061040048
:109AE000D0600400C8600400A8600400B0600400F6
:109AF0002DE9F04385B01D460C9C002394F80C9092
:109B0000237380460E46174621462846FFF7AEFFD0
:109B1000062F09D8DFE807F0042E343B444F1F001E
:109B20004146204601F014F92B7A052B05D06B7ABB
:109B30005BB92749204601F00BF9204601F0FCF8FB
:109B400084F80C9005B0BDE8F083224A22492046F3
:109B500001F0FEF8EDE77369039333690293F3684C
:109B60000193B3680093D6E900234146204601F0F3
:109B7000EFF8D9E732684146204601F0E9F8D3E72B
:109B8000D6E900234146204601F0E2F8CCE7B3686D
:109B90000093D6E900234146204601F0D9F8C3E7F7
:109BA000F3680193B3680093D6E900234146204649
:109BB00001F0CEF8B8E733690293F3680193B36814
:109BC0000093D6E900234146204601F0C1F8ABE7F7
:109BD000E0600400C8600400D0600400082900D9D7
:109BE00070472DE9F04F1D4683B000241B7B2C737A
:109BF0000E4607462946104690460193DFF8D0B03E
:109C0000DFF8D0A0FFF732FF05E03A5D013401F044
:109C10009FF8082C09D0A64251462846F5D8594647
:109C2000013401F095F8082CF5D12449DFF8A8B0EB
:109C3000234CDFF8A8A0284601F08AF84FF000096D
:109C400017E017F80910481C7E294FF02E02C0B209
:109C500006D810F80A2012F0970F14BF0A462E22D9
:109C60002146284609F1010901F072F8B9F1080FFF
:109C70000AD04E45E5D85946284609F1010901F0B8
:109C800067F8B9F1080FF4D198F80830052B02D025
:109C900098F809305BB90B49284601F059F8284675
:109CA00001F04AF8019B2B7303B0BDE8F08F064A20
:109CB0000649284601F04CF8EDE700BFF0600400CB
:109CC000F4600400E0600400C8600400D060040098
:109CD000EC600400E4600400DC600400346D040007
:109CE00038B5174B1D783DB3164A1168C0B2002332
:109CF0000C4604E00133AB4204F108041CD011F817
:109D000033209042F6D102F0B9F96378A3F1010350
:109D1000B3FA83F35B09834200D038BD0A4BD3E921
:109D200000231343F9D1094B094819680022BDE803
:109D30003840490800F0EABC00231B78FFDE00BF72
:109D400070410020C0410020984100207441002053
:109D5000784100202DE9F04FDFF8788298F8003044
:109D600083B0002B00F02B81DFF86C92954F964E5C
:109D700000254FF0010AD7F800B01BF8350002F0BB
:109D80007DF91BF835400BEBC50361085B7816F8CD
:109D900001C014F0010EA3F10103B3FA83F314BF61
:109DA0004FEA1C120CF00F025B09042A00F2EA8051
:109DB000DFE802F0725F33200300834240F09F80AF
:109DC000BEF1000F0CBFF0230F230CEA030C0CBFF5
:109DD0000323302343EA0C03735498F80020013521
:109DE0009542C8DBD9E90023134340F0DE8003B07D
:109DF000BDE8F08F834200F0C580BEF1000F0CBFBC
:109E0000F0230F230CEA030C0CBF0423402343EA86
:109E10000C03735498F80020E1E7834240F0B580CA
:109E2000BEF1000F0CBFF0230F230CEA030C98F8CF
:109E300000200CBF0323302343EA0C037354002A91
:109E4000D0D0D7F800C00023614603E0934201F16F
:109E50000801C4D01CF83300A04203F10103F5D17E
:109E60004B68002BBBD020460121984798F8002072
:109E7000B5E7834219BF00231A4620230222BEF110
:109E8000000F16BF1A46F0230F230CEA03031A43F0
:109E9000725498F80020A2E7834273D14FF0000378
:109EA000BEF1000F8DF8073014BF0F23F0230CEA2A
:109EB000030C14BF1023012343EA0C030DF1070028
:109EC000735400F025FEA4F12003C4F120022AFA05
:109ED00002F20AFA03F31343D9F800209DF80700B1
:109EE0000AFA04F42243C9F80020D9F804201343E5
:109EF000C9F8043000F032FE98F800206FE7BEF198
:109F0000000F14BF0F23F0230CEA030398F800C0DE
:109F10007354BCF1000F12D038680023024603E0EE
:109F2000634502F108020AD010F83310A14203F190
:109F30000103F5D1536813B10021204698474FF033
:109F400000030DF107008DF8073000F0E1FDA4F1EA
:109F50002003C4F120022AFA02F20AFA03F313439F
:109F6000D9F800209DF807000AFA04F422EA040256
:109F7000C9F80020D9F8042022EA0303C9F8043004
:109F800000F0ECFD98F8002029E7BEF1000F0CBFAF
:109F9000F0230F230CEA030C0CBF0123102343EA28
:109FA0000C03735498F8002019E7084B0848196807
:109FB0000022490803B0BDE8F04F00F0A7BBDFF86E
:109FC00018900FE7C0410020A041002074410020FC
:109FD000784100207041002098410020092A3FD993
:109FE000F0B583B0144605460E4601F0CBFE88B3AB
:109FF000204B214A1E70214B1560002120481C6017
:10A00000202206F017FE1F4B00200021741EC3E91A
:10A010000001E4B236B31C4F05EBC404032602E092
:10A02000A5421FD01C469DF8063094F802C0207847
:10A030008DF8046023F007033A4601A98DF8063035
:10A040008DF805C001F0A8FEA4F108030028E7D0B0
:10A0500003B0F0BD01F03CFE0028C9D003B0F0BD54
:10A0600007207047094A0A48002103B0BDE8F040C4
:10A0700000F03ABB70410020C04100207441002034
:10A08000A041002098410020E19C0200559D020063
:10A090009461040070B5084D2B785BB1074E002425
:10A0A0003368012113F8340001F078FF2B78013474
:10A0B000A342F5D8002070BD70410020C0410020AF
:10A0C00000B585B00346002101AA44F20100CDE9A4
:10A0D0000111039300F004F805B05DF804FB00BF24
:10A0E00010B572B6FFF7AEFCFFF7BCF80028FBD145
:10A0F000104B114C1149E41AE408240444F0010007
:10A10000FFF7E0F90E4BD3F8F030DB0700D500BEC7
:10A110000C4944F00200FFF7D5F9BFF34F8F08490F
:10A12000094BCA6802F4E0621343CB60BFF34F8F60
:10A1300000BFFDE788700400D0700400986104003F
:10A1400000ED00E0A46104000400FA0559B142B139
:10A15000531E1A4005D1826001608380C2601046A0
:10A160007047092070470E20704700BF10B4846804
:10A17000C26803468088121B904203D204205DF817
:10A18000044B7047DC681A6820401154DA680132C9
:10A19000DA6000205DF8044B704700BF034680681A
:10A1A000DA6890420DD010B49C689A8818682240F2
:10A1B000825C0A709A6801329A6000205DF8044B54
:10A1C00070470520704700BFF8B5204A204B002497
:10A1D000C2F84041C2F84441C2F84841C2F84C417B
:10A1E000C2F80041C2F804411B6833B31949D2F8E0
:10A1F00004550A68AD1A1A6825F07F45AA42274619
:10A200000DD8197CDE69AD1A144419B1D3E90520C3
:10A210001F7490471EB133461A68AA42F1D90E49FD
:10A220000E4A0B7812789A4208D00D480D4A40F831
:10A2300023404FF48011C2F80011F8BD531CDBB26B
:10A24000022B08BF00230B70EFE700BF0010014096
:10A25000E4420020E0420020DD420020DC420020F9
:10A26000D442002000E100E02DE9F04FA64AA749C2
:10A2700013780978994285B000F082810133DBB20E
:10A28000022B08BF0023A2481370A24A0568DFF81A
:10A290009C8252F82310D8F800C06B1823F07F433B
:10A2A0000360BCF1000F00F0B7810024634626462E
:10A2B0002746A64612E0DC68D8691F609644891AD2
:10A2C0003CB105EB0E0222F07F42C3E90124DE61BE
:10A2D0001E460124002800F05A8103461A688A426B
:10A2E000E9D9002C00F08681C8F800309946521A4E
:10A2F0001A6001230293884B884FDFF834A243F0A1
:10A3000001034D4603934FF0000B7EB3D6E90103E2
:10A310003446F6697E4ADFF81CC21268811A21F0C1
:10A320007F41614500F29B800B4423600022C4E919
:10A330000122E26101222274002D00F0A880296828
:10A34000994280F09D802A4604E01068984280F08F
:10A35000A28001469646D2699C465B1A002AF4D137
:10A3600070462360E261C461002ECFD178783978DD
:10A37000884219D0BA780B460131C9B203EB4303C6
:10A380008A4207EBC30239701379946804BF002135
:10A390003970022B00F09380032B00F08580012B95
:10A3A00000F09B808142E5D1BBF1000F01D1A945AE
:10A3B0002BD07DB3564A5A4B1468D3F80465594FD5
:10A3C000D5F800803A78351B25F07F450335002A03
:10A3D00000F0E2805249A8452CBF4444641924F09F
:10A3E0007F43C1F84035D1F80425921B9B1B22F016
:10A3F0007F42033223F07F439A4200F2E68000233B
:10A400008AF8003005B0BDE8F08F029B002BF6D033
:10A41000002DCFD1444B4FF40032C3F88020BFF35E
:10A420004F8FBFF36F8F3E4E3B4C4FF4803301276D
:10A43000C6F848333C43C6F808334FF43C607760B5
:10A44000A047334BB7604FF43C601D60A047354BCD
:10A450001D7000238AF8003005B0BDE8F08F121A95
:10A4600022F07F429A4202D29B1A23605EE70023C9
:10A470000122C4E90033A360E36122743DB129687D
:10A48000C8F80040CB1A2B60E56125463DE7C8F8C7
:10A490000040254639E7CDF804E086467144A1EB3B
:10A4A0000C01019811605CE7002D3FF461AF0023BF
:10A4B0002B74ED69002DFBD1C8F8005056E74DB163
:10A4C000A54252D02B4601E09C4235D01A46DB69AA
:10A4D000002BF9D10023237464E7237C002B7FF445
:10A4E00061AFD06860609C461369A3605169E16008
:10A4F00091699AF80020A161002A3FF40BAFC4F8DB
:10A5000004C0604606E700BFDC420020DD420020B8
:10A51000E0420020D4420020C0610400C441002079
:10A5200000100140D142002000E100E0E4420020A0
:10A53000D0420020FEFF7F00944217D0E1692368DB
:10A54000D16169B128460A6813440B60854207D07F
:10A55000002305463978787823744FF0010B21E702
:10A5600000233978787823741CE72A46E869C8F80C
:10A570000000002840D0D16913680029E3D1E5E745
:10A58000DFF8B0800026D8F800900296B3E6814646
:10A59000C8F800000294AEE64FF48031214AC3F8B7
:10A5A0004413C3F804134FF40031C2F88011116052
:10A5B0001D4A4FF0010942F00102C3F800904FF428
:10A5C0003C60904787F8009004E7174BD1F80425CA
:10A5D000C1F8402543F001034FF43C609847114B0C
:10A5E0004FF40032C3F8002100238AF8003005B090
:10A5F000BDE8F08FE1467AE601920C4A0C4901234E
:10A60000936008608AF800304FF43C60039B9847E1
:10A61000D8F80000019AAEE70123E14666460293AE
:10A6200069E600BF00E100E0C061040000100140E5
:10A63000E0420020E44200202DE9F843214E4FF48F
:10A640000033C6F88030BFF34F8FBFF36F8F1E4DBE
:10A650001E4FDFF890804FF480334FF00109002443
:10A66000C5F8483347EA0907C5F808334FF43C609A
:10A67000C5F80490B847C5F808904FF43C60C8F896
:10A680000040B847124A134B1460134A1C701470F0
:10A69000124A134B14700B229A701C804FF48012D4
:10A6A000C023C6F8802186F814333260C5F8084507
:10A6B00086F81133D5F80435C8F800302046BDE8D7
:10A6C000F88300BF00E100E000100140C061040019
:10A6D000E4420020D1420020DC420020DD42002084
:10A6E000C4410020E0420020074B9B783BB142B1BF
:10A6F00038B10368187C10B959745A617047082042
:10A7000070470720704700BFC44100202DE9F04387
:10A71000284EB37883B0002B3DD0044600283AD0B1
:10A72000254B91464A1F9A420D4638D8436993B348
:10A73000437C0027012B0DF107000CBF88464FF02A
:10A7400000088DF8077000F0E3F97378B278591CAF
:10A75000C9B28A4208BF394632788A4223D003EB15
:10A76000430306EBC3030120144A18719C60D2F81E
:10A7700004259DF807007170C3E90325C3E9058925
:10A7800000F0ECF90E4B4FF48012C3F8002138466C
:10A7900003B0BDE8F083082003B0BDE8F0830720D4
:10A7A00003B0BDE8F0839DF8070000F0D7F904205E
:10A7B000EEE700BFC4410020FAFFFF000010014097
:10A7C00000E100E070B51B4CA37882B04BB30546A6
:10A7D00038B343692BB3002606740DF107008DF8DA
:10A7E000076000F095F96278A178531CDBB29942BA
:10A7F00008BF33462178994216D002EB42026370BB
:10A8000004EBC20402239DF807002371A56000F049
:10A81000A5F9094B4FF48012C3F80021304602B06D
:10A8200070BD082002B070BD9DF8070000F096F9D9
:10A830000420F4E7C441002000E100E030B50478D2
:10A84000012C83B004D0022C2DD0ECB103B030BD6C
:10A85000037A002B3CD04368364D19782846FFF721
:10A8600085FC002855D0344B01901B688DF80040C2
:10A8700068469847A968EB68AA885B1A9A4227D26B
:10A880002E4B01221A70E1E72D492E48FFF786FC76
:10A8900000282DD0284B03221B688DF80020684625
:10A8A000984703B030BD284B284D1A78C168AA5C80
:10A8B00001918DF800402649AAB9012203F10C004C
:10A8C00002F060FA1C4B68461B68984703B030BD25
:10A8D0001D4B1E4A1B781E49D35C0122ABB11D489B
:10A8E00002F02EFDB2E70122181D02F029FDE9E772
:10A8F0001548164A03781249D35C0122A3B10430EB
:10A9000003B0BDE8304002F0B5BC134802F03AFA9B
:10A910009CE7AA68EB689A42ACD0074B8DF8000020
:10A920001B6868469847A5E70C3003B0BDE8304087
:10A9300002F0B0B9EC420020E8420020FC420020C6
:10A940001443002000430020D82C0020584300204E
:10A9500010430020DC2C0020E42C00202DE9F041E5
:10A960002F4E88B03260002951D08A8804460E46A6
:10A970002C4809681D46FFF7E9FB10B108B0BDE897
:10A98000F081B289B1682848FFF7E0FB0028F5D1D3
:10A9900094F810E0637C254E254FBEF1000E18BFE1
:10A9A0004FF0010E002B0FCEEC46ACE80F006368B1
:10A9B000009323680193E3680293A368039396E8E6
:10A9C0000F0018BF4FF00E088CE80F0008BF4FF0C3
:10A9D00000086369174A0693694638468DF814E003
:10A9E0008DF81C508DF8158001F0C0F80028C5D1F5
:10A9F0002368114A01331070C0D0104A3B781049C7
:10AA0000D35C01223BB1381D02F09AFCB6E7072067
:10AA100008B0BDE8F08107F10C0002F0B3F9ADE732
:10AA2000E8420020EC42002000430020C8610400FE
:10AA3000D82C00203DA80200FC42002058430020F2
:10AA40001043002070B5104D014610482E78FFF7D6
:10AA5000A5FB04460EB9204670BD0D480D4903788C
:10AA6000CB5C0D4900222A70012243B1043002F070
:10AA700067FC0028EFD0FFF723FB204670BD0C30A9
:10AA800002F080F9F5E700BFFC420020EC42002014
:10AA9000D82C0020584300201043002070B50146F8
:10AAA0001548FFF763FB044608B1204670BD134DFF
:10AAB000134E2B78F35CA3B1281D02F033FC002861
:10AAC000F3D110490C48FFF769FB0028EDD12B7832
:10AAD0000C49F35C53B1BDE870400B48012202F011
:10AAE000C9BB05F10C0002F041F9E8E7BDE8704090
:10AAF0000648012202F0CEB800430020D82C0020E6
:10AB00005843002014430020DC2C0020E42C0020BB
:10AB100070B4EFF3108472B60D4B9A68AAB9012194
:10AB200099600C490C4ED1F8805035401D60C1F839
:10AB30008060D1F884505D604FF0FF33C1F88430FD
:10AB4000027004B962B670BC704701230370F8E765
:10AB50001843002000E100E0FC06FFBD094B9A68A5
:10AB60007AB170B910B4EFF3108172B6064A1C685E
:10AB700014605C685460986001B962B65DF8044B7B
:10AB8000704770471843002000E100E04B0901F0D6
:10AB90001F024FF0010C0CFA02F100EB830000F0F1
:10ABA00021B800BF01F01F02012303FA02F24B0992
:10ABB00000EB8300D14300F021B800BF4B0901F046
:10ABC0001F0150F82300C84000F00100704700BF8B
:10ABD000034653E8000F0A4643E8002C9CF0000FA0
:10ABE000F7D17047034653E8002F42EA010043E8DB
:10ABF000000C9CF0000FF6D1704700BF034653E8ED
:10AC0000002F02EA010043E8000C9CF0000FF6D18F
:10AC1000704700BF034653E8002F02EB010043E8F2
:10AC2000000C9CF0000FF6D1704700BF034653E8BC
:10AC3000002FA2EB010043E8000C9CF0000FF6D1BE
:10AC4000704700BF0346012253E8001F41EA02009B
:10AC500043E8000C9CF0000FF6D170470346002239
:10AC600053E8000F00EA020143E8001C9CF0000FCB
:10AC7000F6D17047D0B110B4D0E90112521A04686D
:10AC8000D2B2531E2160DBB252B101680A6803F1EF
:10AC9000FF3C541C0C6013705FFA8CF3FF2BF4D153
:10ACA0000368002018715DF8044B70470E20704750
:10ACB00030B583B0044600250DF107008DF807502C
:10ACC000FFF726FFD4E900311A688A4210D9511ED5
:10ACD00019602168A3680D6812F8012C208A5B1B9B
:10ACE000E56800FB02550A79DBB29A4238BF0B7166
:10ACF0009DF80700FFF732FF284603B030BD00BFC4
:10AD000030B5054683B00DF1070000230C468DF8E1
:10AD10000730FFF7FDFE2A681368591C1160E968C7
:10AD20002A8A641AB4FBF2F41C709DF80700FFF73E
:10AD300015FF03B030BD00BF826842B110B50446B4
:10AD400043690168006998470023A36010BD7047FC
:10AD50000EB400B582B0039921B104AB01AA0193EE
:10AD600000F0AAF802B05DF804EB03B0704700BF32
:10AD70002DE9F84F1546A942DDF828800B9A0E46BA
:10AD800083469A46C0F094800B460127B3FBF5F347
:10AD90009D4207F10107F9D9574538BF574612F0D0
:10ADA000010902D1B8F1000F5BD1DBF80810BAF14C
:10ADB000010F4FF0010406D90AF1FF3ABAF1010F71
:10ADC00005FB04F4F8D8B6FBF4F39D4205D805FB67
:10ADD00004F4B6FBF4F39D42F9D9DFF8D8A008E0FB
:10ADE000AC42B4FBF5F319D3DBF808101C46B6FBF4
:10ADF000F3F34A1CCBF80820DBF800201AF8030014
:10AE0000505404FB1366DBE901329A42E8D35846FA
:10AE1000FFF792FFB4FBF5F3AC42E5D2B9F1000FB6
:10AE200016D0B8F1000F13D02024474508F1FF38A1
:10AE30000ED2DBF80830DBF80020591CCBF80810E4
:10AE4000D454DBE901329A4204D2B8F1000FECD1BC
:10AE5000BDE8F88F5846FFF76FFFB8F1000FE4D157
:10AE6000F6E793071ED42024DBF80810474501F1CC
:10AE700001029CD2DBF80030CBF808205C54DBE9FF
:10AE80000131994208F1FF3803D2B8F1000FEDD13A
:10AE90008DE75846FFF750FFDBF80810B8F1000FB8
:10AEA000E4D184E7BAF1000F0CBF30242024DBE7A3
:10AEB000012771E7E8610400002900F09D812DE978
:10AEC000F04FDFF898940B7885B0064690460C4614
:10AED0004FF0300A01E0237893B1013483B1252B80
:10AEE00015D0B2683168501CB0608B54D6E901327D
:10AEF0009A42F0D33046FFF71FFF2378002BECD1A6
:10AF0000337B002B40F0948005B0BDE8F08F002724
:10AF1000234614F8012B2D2A63D0302A64D02B2A23
:10AF200058D02A2A63D0A2F1300109294FF0000538
:10AF30000BD805EB850502EB450513F8012FA2F1AF
:10AF400030010929A5F13005F3D92E2A1C4659D024
:10AF5000002301E014F8012F02F0FB016829F9D069
:10AF6000252A00F03E81583AD1B2202930D8202A33
:10AF70002ED8DFE812F021002D002D002D002D002D
:10AF80002D002D002D002D002D002D009E006300B2
:10AF90002D002D002D002D0063002D002D002D0013
:10AFA0002D002D002D00B2002D002D00EF002D00F2
:10AFB00027012D002D002100D8F800101022081DB7
:10AFC000C8F8000009683046CDE90057FFF7D0FE09
:10AFD000013480E7234614F8012B2D2A47F004079B
:10AFE0009BD147F0010793E747F0020790E7D8F8B5
:10AFF0000020111DC8F8001015685A782E2A03F198
:10B000000104A5D16278A2F13003092B04F10104F7
:10B010004FF00003A0D803EB830302EB430314F8C3
:10B02000012FA2F130010929A3F13003F3D993E7ED
:10B03000304605B0BDE8F04FFFF77EBED8F80020DF
:10B04000111DC8F80010D2F800B08BEAEB72A2EB29
:10B05000EB72092A40F37D81DFF804C30120114619
:10B060006329ACFB02E200F101004FEAD202F6DCF8
:10B070009842024638BF1A460292002D40F0BD8029
:10B08000B80700F130810025BBF1000FC0F20E813E
:10B090007A0700F11E8107F00302022A00F03381D3
:10B0A000CDE9005759460A223046FFF761FE0134C8
:10B0B00011E7D8F800301A1DC8F800201978B368D5
:10B0C0003268581CB060D154D6E901329A42FFF47C
:10B0D0007FAF3046FFF730FE7AE7D8F800301A1D10
:10B0E000C8F800201F68B3683268591CB16002F8C4
:10B0F00003A0D6E90123934280F02481591C3268D1
:10B10000B1607821D154D6E90123934280F01581B2
:10B110000F2F03D93A4612090F2AFCD84FF0805559
:10B1200006E00F2D4FEA15127FF652AFB3681546B1
:10B130005A1CB2603268B7FBF5F119F80100D0541F
:10B14000D6E901329A4205FB1177EAD33046FFF780
:10B15000F3FDE6E7D8F800301A1DC8F8002017F014
:10B160000107D3F800B069D09BF80000002800F078
:10B17000F280B1685F46CBF101024B1CB3603368CB
:10B180005854D6E90131994202EB070B1ED217F849
:10B19000010F0028F1D15D457FF61AAF202702E0AC
:10B1A0005D453FF415AFB2683368511CB1609F54E0
:10B1B000D6E901329A4205F1FF35F1D33046FFF767
:10B1C000BBFDEDE7D8F800100A22F8E630460292FF
:10B1D000FFF7B2FD17F8010F0028DCD0B168029A22
:10B1E000CBE7B3683168581CB060CA54D6E9013265
:10B1F0009A42FFF4EDAE6CE77047BBF1000F01DB44
:10B200007A0700D5013DB80769D4F9073FF53CAF8F
:10B21000002D3FF438AF20220299A942BFF434AF89
:10B22000B168481CB06030684254D6E901018142DF
:10B2300005F1FF355ED2002DEED124E7BBF1000F02
:10B2400003D0584606F098F90746BD4213D920228C
:10B2500001E0BD420FD0B1683368481CB0605A5459
:10B26000D6E90131994205F1FF35F2D33046FFF7B7
:10B2700063FD2022EDE79BF80030002B3FF4A8AEE1
:10B28000B1683268481CB0605354D6E90131994224
:10B2900004D21BF8013F002BF3D199E63046FFF7AB
:10B2A0004BFD1BF8013F002BEAD191E6B1683268F3
:10B2B000481CB060CBF1000B2D205054D6E9012181
:10B2C0009142FFF4E8AE30460393FFF735FD039B50
:10B2D000E1E6B1683268481CB0602B20EDE7002B36
:10B2E0003FF4D2AE91E7002B3FF4CEAEF9073FF525
:10B2F000CBAEC8E630460393FFF71EFD039B20222A
:10B30000002D89D1BFE6002B7FF4CAAEFDB1029AB1
:10B31000AA42BFF4C5AEB1683268481CB06002F8FA
:10B3200001A0D6E90121914205F1FF35EED3304667
:10B330000393FFF701FD039BE8E73046FFF7FCFCB2
:10B34000B368E5E63046FFF7F7FCB368D6E60025BC
:10B35000A6E601208CE683461DE700BFE8610400F5
:10B36000CDCCCCCCFFF786BC2DE9F041058A03316A
:10B37000043D4E198046B6FBF5F6FFF799FCA0B3E5
:10B38000F6B24FF48073013E04468380C580C0F856
:10B3900000802BD00346002508E06279AE4202F11E
:10B3A000010262713860C0F800801FD040461F461D
:10B3B000FFF77EFC013503460028EED16779791E40
:10B3C00017D02246013399421268FBD1D2F800808F
:10B3D0005FB12668002501E03446366821464046C4
:10B3E0000135FFF78DFCAF42F6D800242046BDE8BA
:10B3F000F08120682146FFF783FCF6E70121043045
:10B40000FFF708BC2DE9F041012104460430FFF7A5
:10B410000DFC10F0FF0301D0BDE8F0816779791EC3
:10B4200016D02246013399421268FBD1D2F800802F
:10B43000002FF1D02668002501E034463668214609
:10B4400040460135FFF75CFCAF42F6D8BDE8F0811D
:10B4500020682146BDE8F041FFF752BC2DE9F843D2
:10B460008846C788417907FB01F1043902EB030CD8
:10B470001E1D6145154638BFCD1AB7420446B6FBBE
:10B48000F7F207FB126002D8013A2468FCD13E1A99
:10B49000AE4228BF2E469DB14FF000090430AD1BCF
:10B4A000324608EB0901204405F0B6FBAF42B14437
:10B4B00024683E464FF0000028BF2E46002DEDD1F7
:10B4C000BDE8F8832DE9F8430446C788407907FBB7
:10B4D00000F0043802EB030C1E1D6045154638BF12
:10B4E000C51AB7428846B6FBF7F107FB116202D8CE
:10B4F00001392468FCD1BE1AAE4228BF2E469DB148
:10B500004FF00009111DAD1B3246214408EB090024
:10B5100005F082FBAF42B14424683E464FF0000282
:10B5200028BF2E46002DEDD1BDE8F88341DF7047DE
:10B53000064A074B10B5002414701C60BFF35F8FE0
:10B540000449054800F042F8204610BD2C43002075
:10B5500030430020046204002443002000B583B07F
:10B5600000230DF107008DF80730FFF7D1FAF1EE57
:10B57000103A23F09F03E1EE103ABFF35F8F0B4BBD
:10B580004022C3F884219DF80700FFF7E7FA05F091
:10B59000F3F828B920BF40BF20BF03B05DF804FB1B
:10B5A00003B05DF804EBFFF7C1BF00BF00E100E0AE
:10B5B00082680023936082681361826853618268A5
:10B5C000D3608268536082681360704701600B68C3
:10B5D00043604A68934204BF00234360704700BF42
:10B5E000436843B1026891680B44436052689342D8
:10B5F00004BF0023436070471049A1F5947205E031
:10B6000052F83330984238BF61460CD2A1EB020C9D
:10B610004FEADC7303EBEC035B10914202EBC30CCB
:10B62000EED80748704702D90CF10802EEE7DCF8C3
:10B630000400034B002808BF184670473867040011
:10B64000FC65040070B5161E07DD0C468D1914F854
:10B65000010BFFF723FAA542F9D1304670BD00BFB8
:10B6600010B50C462046FFF7EDF90528FAD0012069
:10B6700010BD00BF10B44FF08053D3F83021082A1A
:10B680001CD0774AD2F8883043F47003C2F888306F
:10B69000BFF34F8FBFF36F8F4FF01023D3F800220B
:10B6A000002AC0F2AC80D3F80432002BC0F2A7808D
:10B6B0006C4B6D4A1A605DF8044B70474FF0804147
:10B6C0000020C1F80C01694AC1F81001C1F8380521
:10B6D000D3F80414C2F82015D3F80814C2F82415BE
:10B6E000D3F80C14C2F82815D3F81014C2F82C158E
:10B6F000D3F81414C2F83015D3F81814C2F834155E
:10B70000D3F81C14C2F84015D3F82014C2F844151D
:10B71000D3F82414C2F84815D3F82814C2F84C15ED
:10B72000D3F82C14C2F85015D3F83014C2F85415BD
:10B73000D3F83414C2F86015D3F83814C2F864157D
:10B74000D3F83C14C2F86815D3F84014C2F86C154D
:10B75000D3F83411D3F84434C2F87035032942D8F1
:10B76000434B5B5C1BB1434B434AC3F88C26434BB2
:10B770005B5C73B14FF080534149D3F83021FB201B
:10B78000C1F81805082AD3F834117FF47AAF0329D9
:10B7900029D83C4B5B5CBBB14FF080524FF08040EE
:10B7A000D2F85832D0F8E41ED2F8304121F00F011F
:10B7B00003F00F030B43C0F8E43E082CD2F8341119
:10B7C0007FF45FAF03290ED82F4B5B5C5BB14FF06A
:10B7D00080532E4AD3F830314FF40071082BC2F851
:10B7E00040167FF44EAF4FF08043D3F80024D207C9
:10B7F0007FF547AF6FF00102C3F8002441E7244A08
:10B800000123C2F80435D2F80034002BFBD04FF0EE
:10B81000102312211E4AC3F80012D2F80034002B64
:10B82000FBD04FF010231221194AC3F80412D2F8AA
:10B830000034002BFBD000231549C2F80435D1F8A1
:10B840000034002BFBD0BFF34F8F0549114BCA6862
:10B8500002F4E0621343CB60BFF34F8F00BFFDE7FC
:10B8600000ED00E0EC2C00200090D00300C0004070
:10B870003867040000500040488103003867040026
:10B8800000F0004038670400386704000090024070
:10B8900000E001400400FA05074B1B5C1F2B8ABF28
:10B8A000064A4FF0A04203F01F03D2F80405D84027
:10B8B00000F00100704700BF3C6704000003005027
:10B8C000064B1A5C1F2A86BF054902F01F024FF083
:10B8D000A04101239340C1F8083570473C6704003C
:10B8E00000030050064B1A5C1F2A86BF054902F070
:10B8F0001F024FF0A04101239340C1F80C3570475F
:10B900003C670400000300504FF0A04380214FF437
:10B910008042C3F80C15C3F80C2570474FF0A043C4
:10B9200080214FF48042C3F80815C3F808257047FA
:10B930000A4B185C1F288ABF09494FF0A04100F04C
:10B940001F00D1F804350122824022EA030013408F
:10B95000C1F80805C1F80C35704700BF3C6704000A
:10B96000000300504FF0A043D3F810056FEA5030A9
:10B9700000F00100704700BF0D3818BF4FF0FF30D6
:10B98000704700BF0D207047C10707D4830742BF2F
:10B990004FF0A0430C22C3F8342770474FF0A04368
:10B9A000032210B44FF48041C3F81C278024C3F84D
:10B9B00038278207C3F80C45C3F80C1504D54FF09F
:10B9C000A0430C22C3F834275DF8044B704700BF36
:10B9D00010B568B90E4CA368012262703BB1D3E97F
:10B9E00000230020A2609847A368002BF7D110BD68
:10B9F0000128FCD1064C2369A070002BF7D0D3E9B5
:10BA000000230120226198472369002BF7D110BD44
:10BA10003443002070B910B5074CA368012262704E
:10BA20003BB1D3E900230020A2609847A368002B14
:10BA3000F7D110BD704700BF3443002030B5012856
:10BA400083B004D0032821D0B0B103B030BD294C5D
:10BA500000230DF107008DF80730FFF759F8237820
:10BA60006BB3E3689DF8070001221344E360A27002
:10BA7000FFF774F803B030BD1F4B0122C3F88020DC
:10BA8000BFF34F8FBFF36F8F03B030BD194C00F081
:10BA9000BFF800230DF107008DF80730FFF738F8E5
:10BAA000E368013BE360E3681BB9144BD3F800542F
:10BAB000C5B19DF80700FFF751F803B030BD10483D
:10BAC0006360A3602361E36000F096F804F054FE25
:10BAD00060B10A4A01232370D2F80024002AC0D0A2
